:100000000C949B050C94E4050C94E4050C94E40515
:100010000C94E4050C94E4050C94E4050C94E405BC
:100020000C94E4050C94E4050C941F0D0C94F50D50
:100030000C94931C0C94E4050C94E4050C94E405D6
:100040000C94E4050C94E4050C94E4050C94E4058C
:100050000C94E4050C94071D0C94E4050C94E40541
:100060000C94E4050C94E4050C94E4050C94E4056C
:100070000C94E4050C94E4050C94E4050C94E4055C
:100080000C94E4050C94E4050C94E4050C94E4054C
:100090000C94E4050C94E405660E880E7B0F880E24
:1000A0007B0FCD0EF00E7B0F450F580F4E134E13E6
:1000B00078137813D3130714F715F7151E14F715D3
:1000C00009150915CF15F715F715E415F1A1293A0A
:1000D0003B3C3E3F404143444546494C351E1F2072
:1000E0003D232442272D2E302A4A2B141A08212280
:1000F000252612132F34314BA80416071517180C98
:100100000E0F33E5284EE11D1B06091C0B0D36377B
:100110003850524DE0E3E22C190A051110E6C0E414
:10012000514FA8A9AA010101010101010101010129
:1001300001010101010101010101010101010101AF
:10014000010101010101010101010101010101019F
:10015000010101010101010101010101010101018F
:10016000010101010101010101010101010101017F
:100170000101010101010A002530325800626F754A
:100180006E6365213A20004B6579626F617264206D
:1001900073746172742E0A0055534220636F6E6649
:1001A0006967757265642E0A000D0A696E69740AC2
:1001B000005B445D005B435D001E034B0068006113
:1001C000006E0068006A004B006500790062006FF5
:1001D00000610072006400000012036700650065A2
:1001E000006B006800610063006B000000040309FD
:1001F0000409027400040100A03209040000010394
:1002000001010009211101000122400007058103BD
:1002100008000A090401000103010200092111017B
:100220000001224D000705820308000A09040200AC
:100230000103000000092111010001223600070519
:10024000830308000A0904030002030000000921D7
:100250001101000122220007058403200001070587
:1002600004032000011201100100000008EDFE60EF
:10027000600100010200010631FF0974A101097546
:10028000150026FF009520750881020976150026C5
:10029000FF00952075089102C005010980A1018524
:1002A0000216810026B7001A81002AB70075109542
:1002B000018100C0050C0901A1018503160100267A
:1002C0009C021A01002A9C02751095018100C0054C
:1002D000010902A1010901A100050919012905155A
:1002E00000250195057501810295017503810105C0
:1002F00001093009311581257F95027508810609AC
:10030000381581257F950175088106050C0A38028C
:100310001581257F950175088106C0C00501090674
:10032000A101050719E029E71500250195087501C8
:1003300081029501750881010508190129059505B6
:10034000750191029501750391010507190029FFB7
:10035000150026FF00950675088100C0636F6E7357
:10036000756D65723A20253034580A0073797374BC
:10037000656D3A20253034580A000A00253032587D
:1003800020006B6579626F6172643A20004C4544CD
:100390003A20253032580A00253032583A2025308C
:1003A00031366225730A00722F63203031323334C4
:1003B00035363738394142434445460A00646F6E4A
:1003C000652E0A00626F6F746D61676963207363E5
:1003D000616E3A202E2E2E2000290A002575002F4E
:1003E000002575005D28002564002000256400209C
:1003F0000025640020002564007C00253032580070
:100400006D6F7573656B6579205B62746E7C7820A7
:1004100079207620685D287265702F61636C293AB7
:10042000205B006D6B5F776865656C5F74696D65F7
:100430005F746F5F6D6178203D2025640A006D6BED
:100440005F776865656C5F6D61785F737065656423
:10045000203D2025640A006D6B5F74696D655F74D3
:100460006F5F6D6178203D2025640A006D6B5F6DC4
:1004700061785F7370656564203D2025640A006DB6
:100480006B5F696E74657276616C203D2025640A2D
:10049000006D6B5F64656C6179203D2025640A0006
:1004A0006D6B5F776865656C5F74696D655F746FB0
:1004B0005F6D6178203D2025640A006D6B5F776871
:1004C00065656C5F6D61785F7370656564203D2064
:1004D00025640A006D6B5F74696D655F746F5F6D95
:1004E0006178203D2025640A006D6B5F6D61785F47
:1004F0007370656564203D2025640A006D6B5F693B
:100500006E74657276616C203D2025640A006D6B07
:100510005F64656C6179203D2025640A000A00252E
:100520007500363A20776865656C5F74696D655F44
:10053000746F5F6D61783A20000A00257500353AC6
:1005400020776865656C5F6D61785F737065656461
:100550003A20000A00257500343A2074696D655F01
:10056000746F5F6D61783A20000A00257500333A98
:10057000206D61785F73706565643A20000A00251C
:100580007500323A20696E74657276616C286D73FD
:10059000293A20000A00257500313A2064656C6113
:1005A00079282A31306D73293A20000A092D205606
:1005B000616C756573202D0A004D3E004D25643E2B
:1005C00020003F007365742064656661756C740A71
:1005D00000433E200077686572652064656C746135
:1005E0003A20637572736F723D25642C20776865BD
:1005F000656C3D25640A53656520687474703A2FF4
:100600002F656E2E77696B6970656469612E6F72F4
:10061000672F77696B692F4D6F7573655F6B6579B0
:10062000730A000A092D204D6F7573656B6579207B
:100630002D0A4553432F713A09717569740A313A8D
:100640000964656C6179282A31306D73290A323A60
:1006500009696E74657276616C286D73290A333A84
:10066000096D61785F73706565640A343A0974696D
:100670006D655F746F5F6D61780A353A09776865FB
:10068000656C5F6D61785F73706565640A363A0901
:10069000776865656C5F74696D655F746F5F6D61C8
:1006A000780A0A703A097072696E742076616C7506
:1006B00065730A643A097365742064656661756CD4
:1006C00074730A75703A092B310A646F776E3A09B0
:1006D0002D310A706775703A092B31300A706764E2
:1006E0006F776E3A092D31300A0A737065656420A0
:1006F0003D2064656C7461202A206D61785F7370A1
:10070000656564202A2028726570656174202F2039
:1007100074696D655F746F5F6D6178290A003F00D1
:100720004D3E2000433E20004C25640A000A092D5E
:1007300020436F6E736F6C65202D0A4553432F71F4
:100740003A09717569740A6D3A096D6F7573656B55
:1007500065790A000A092D204D61676963202D0A19
:10076000643A0964656275670A783A096465627576
:1007700067206D61747269780A6B3A096465627505
:1007800067206B6579626F6172640A6D3A0964650E
:10079000627567206D6F7573650A763A09766572C2
:1007A00073696F6E0A733A097374617475730A63BF
:1007B0003A09636F6E736F6C65206D6F64650A3004
:1007C0002D343A096C61796572302D342846313008
:1007D0002D4634290A506175733A09626F6F746C43
:1007E0006F616465720A653A09656570726F6D0ABA
:1007F000000A002575002E6E6B726F3A20000A0009
:100800002575002E737761705F6261636B736C6135
:1008100073685F6261636B73706163653A20000A9D
:10082000002575002E737761705F67726176655F72
:100830006573633A20000A002575002E6E6F5F67AE
:1008400075693A20000A002575002E737761705F84
:1008500072616C745F726775693A20000A002575D1
:10086000002E737761705F6C616C745F6C67756983
:100870003A20000A002575002E636170736C6F6367
:100880006B5F746F5F636F6E74726F6C3A20000AF7
:10089000002575002E737761705F636F6E74726FE1
:1008A0006C5F636170736C6F636B3A20000A0025A4
:1008B000303258006B65796D61705F636F6E666989
:1008C000672E7261773A20000A002575002E6D6F41
:1008D0007573653A20000A002575002E6B657962F4
:1008E0006F6172643A20000A002575002E6D6174F4
:1008F0007269783A20000A002575002E656E6162E3
:100900006C653A20000A0025303258006465627533
:10091000675F636F6E6669672E7261773A20000ABF
:100920000025750064656661756C745F6C6179653E
:10093000723A20003F0074696D65725F7265616490
:10094000333228293A202530346C580A006B6579F7
:10095000626F6172645F69646C653A2025580A00B1
:100960006B6579626F6172645F70726F746F636FD1
:100970006C3A2025580A00686F73745F6B65796262
:100980006F6172645F6C65647328293A2025580A88
:10099000000A092D20537461747573202D0A0047D5
:1009A00043433A20352E342E30204156522D4C49A7
:1009B00042433A20322E302E30204156525F41526F
:1009C00043483A2061767235310A004F5054494FFE
:1009D0004E533A204C55464120424F4F544D4147CB
:1009E0004943204D4F5553454B4559204558545286
:1009F000414B455920434F4E534F4C4520434F4D9B
:100A00004D414E4420343039360A004255494C4459
:100A10003A203232663663623237202832333A3136
:100A2000303A3439204F637420323120323031383B
:100A3000290A005649443A203078464545442867FB
:100A400065656B6861636B29205049443A203078B2
:100A500036303630284B68616E686A4B6579626F54
:100A600061726429205645523A2030783030303156
:100A70000A00444553433A20742E6D2E6B2E206B92
:100A80006579626F617264206669726D7761726503
:100A900020666F7220474836300A000A092D20561A
:100AA000657273696F6E202D0A000A6D6F7573652C
:100AB0003A206F66660A000A6D6F7573653A206F9B
:100AC0006E0A000A6B6579626F6172643A206F6624
:100AD000660A000A6B6579626F6172643A206F6E14
:100AE0000A000A6D61747269783A206F66660A00BE
:100AF0000A6D61747269783A206F6E0A000A646543
:100B00006275673A206F6E0A000A64656275673A1B
:100B1000206F66660A000A0A626F6F746C6F616408
:100B200065722E2E2E2000433E20006565636F6E99
:100B30006669673A0A0011241FBECFEFD0E2DEBF1C
:100B4000CDBF04B603FE27C08091D9019091DA0190
:100B5000A091DB01B091DC018730904BA740B04BF6
:100B6000D1F41092D9011092DA011092DB011092A7
:100B7000DC0114BE84B7877F84BF0FB6F894A895B4
:100B800080916000886180936000109260000FBEC9
:100B9000E0E0F8EF099511E0A0E0B1E0EAE4F3E568
:100BA00000E00BBF02C007900D92A433B107D9F744
:100BB00021E0A4E3B1E001C01D92A93DB207E1F735
:100BC0000E94540A0C94A3290C940000FF93EF9305
:100BD000E0913401F0913501309709F00995EF91DA
:100BE000FF910895FC018591803011F0EFDFFBCF7C
:100BF0000895FF27E0E230E247FF0CC0419597FFE0
:100C000009C0EDE26095709580959095611D711D0C
:100C1000811D911D27FF02C0219530E350E2AA27D4
:100C2000660F771F881F991FAA1FA41710F0A41B17
:100C300063955A95A9F7AA3008F0A95FA05DAF9314
:100C4000F395611571058105910541F7ED3211F4B8
:100C5000EF93F395F21718F43F93F395FBCF8F9131
:100C6000B5DFFA95E1F70895E991F9918591803022
:100C700021F0853219F0AADFF9CF089520E0E89439
:100C800055915532C1F3503311F4689455915A334C
:100C900048F4505390F3220F022E220F220F200D02
:100CA000250FF4CF0EF4219589919991533619F3BC
:100CB000533729F1533559F1BC0188279927E89416
:100CC0005C3621F48991999168945591543639F4A0
:100CD00046EF7EF077FF0DC08FEF9FEF0AC05537CC
:100CE0004AE039F0583540E121F0523642E009F04F
:100CF0000895FF93EF937DDFEF91FF91B7CFFF93BF
:100D0000EF93FC0181918030B9F360DFFBCFFF935B
:100D1000EF9368DFF1CFDF93CF93CDB7DEB72596A2
:100D2000A3DFCF91DF91089587B1837E87B988B122
:100D3000837E88B980B3837E80BB81B3837E81BB91
:100D400008950E94940684B1807F84B985B18F6034
:100D500085B98AB183708AB98BB18C6F8BB98DB12B
:100D60008E738DB98EB1816C8EB98098889AE2E4C9
:100D7000F1E0A6E3B1E0119211921D921D9281E083
:100D8000EE34F807C1F70895AF92BF92CF92DF9289
:100D9000EF92FF920F931F93CF93DF93E6E3AE2E74
:100DA000E1E0BE2EE50110E001E0F8E7CF2EF1E032
:100DB000DF2E133099F028F4113051F0123059F031
:100DC00004C0143071F0153079F03A9A42980EC090
:100DD0003B9A43980BC03C9A449808C0849A8C98DC
:100DE00005C0839A8B9802C0829A8A9880EA8A9575
:100DF000F1F789B186958695802780FBEE24E0F88F
:100E0000F12C4B9903C082E090E002C080E090E0BA
:100E10008E299F294C9903C0E4E0F0E002C0E0E095
:100E2000F0E08E2B9F2B4D9903C068E070E002C06C
:100E300060E070E0862B972B4E9903C020E130E0F4
:100E400002C020E030E0AC01422B532B29B1022E2E
:100E5000000C330B20953095C9018827990F881F06
:100E6000992775E0880F991F7A95E1F7842B952BC8
:100E7000609903C060E470E002C060E070E0862B1F
:100E8000972B789903C060E870E002C060E070E0E2
:100E9000862B972B669903C020E031E002C020E04A
:100EA00030E0AC01422B532B2CB1022E000C330B43
:100EB00020953095C9018827990F881F9927982F69
:100EC0008827990F842B952B189903C040E054E094
:100ED00002C040E050E0842B952B199903C040E0FC
:100EE00058E002C040E050E0842B952B1A9903C0D3
:100EF00020E030E102C020E030E0822B932B1B99F0
:100F000003C020E030E202C020E030E0822B932BCF
:100F1000288139812817390749F19983888380917D
:100F20000001882301F18091BA0180FF04C08DE7A0
:100F300091E00E94F2058091BA0180FF0CC080917F
:100F400000011F928F93DF92CF920E948B060F9029
:100F50000F900F900F908091BA0180FF04C086E738
:100F600091E00E94F20585E0809300010E949406C2
:100F70001F5F2296163009F01CCF80910001882354
:100F8000C9F0815080930001882339F0AFE9BFE0B8
:100F90001197F1F700C000000DC0E2E4F1E0D501C7
:100FA0008D919D915D0181939193B2E4AB16B1E077
:100FB000BB06A9F781E0DF91CF911F910F91FF90C0
:100FC000EF90DF90CF90BF90AF900895E82FF0E0C2
:100FD000EE0FFF1FEE5BFE4F80819181089581FF30
:100FE00002C0229A01C022982A98089580915A013D
:100FF00008959FB7F894109251019FBF9091CF012F
:10100000943009F057C09091E9009F703091EC0046
:10101000232F217030FD20E8922B24E02093E9005B
:101020002091EB0020FF43C02091EE0027FF3FC03E
:1010300020914E01222321F02091E80025FF37C0A6
:1010400010924E0126E03091E80035FD15C0309138
:10105000CF01343061F53091EB0035FD28C02150CF
:1010600021F481E080934E0122C0EFE9FFE0319747
:10107000F1F700C00000E7CF8093F1008091E80015
:1010800085FD0AC08091E80080FFFCCF8091E800D8
:101090008E778093E80006C08FB7F89421E0209304
:1010A00051018FBF9F709093E90080E008959F7079
:1010B0009093E9008FEF0895CF93DF9300D01F92B4
:1010C000CDB7DEB79C018091CF01843019F593E054
:1010D00099833B832A839093E9008FEF9091E800F6
:1010E000815095FD06C095ED9A95F1F700008111AC
:1010F000F5CF8091E80085FF0DC040E050E063E04F
:1011000070E0CE0101960E94140B8091E8008E776A
:101110008093E8000F900F900F90DF91CF9108958A
:10112000CF93DF9300D01F92CDB7DEB72091CF01D0
:10113000243021F522E029839B838A8383E08093F6
:10114000E9008FEF9091E800815095FD06C095ED84
:101150009A95F1F700008111F5CF8091E80085FFA5
:101160000DC040E050E063E070E0CE0101960E94C7
:10117000140B8091E8008E778093E8000F900F9019
:101180000F90DF91CF9108952091CF012430F1F499
:1011900022E02093E9002FEF3091E800215035FD47
:1011A00006C035ED3A95F1F700002111F5CF2091F9
:1011B000E80025FF0BC040E050E065E070E00E94D1
:1011C000140B8091E8008E778093E8000895CF9308
:1011D000DF932091CF01243039F521E02093E900FD
:1011E0002FEF3091E800215035FD06C035ED3A95DE
:1011F000F1F700002111F5CF2091E80025FF14C080
:10120000EC0140E050E068E070E00E94140B809137
:10121000E8008E778093E80088E0FE01A2E5B1E067
:1012200001900D928A95E1F7DF91CF91089585EBBA
:1012300091E00E94F2058091CE01811109C00E94C7
:10124000A10C0E94030D8091E20084608093E20073
:10125000089581EB91E00E94F2051092CE0108956D
:10126000089520914F012F5F822F62E30E9435295C
:10127000992319F020934F01089510924F01809106
:101280005101882371F18091CF01843041F5809123
:10129000E9008F702091EC00922F917020FD90E872
:1012A000892B94E09093E9009091EB0090FF14C09B
:1012B0009091EE0097FF10C09091E80095FF03C059
:1012C0001092F100F9CF9091E80090FF05C0909145
:1012D000E8009E779093E8008F708093E900109269
:1012E0005101089542E061EC81E00E941A0C42E055
:1012F00061EC82E00E941A0C42E061EC83E00E9403
:101300001A0C42E261EC84E00C941A0C8091D10139
:10131000833009F453C030F4813071F0823009F425
:101320008CC008958A3009F478C08B3009F45EC00F
:10133000893009F09AC020C08091D001813A09F02B
:1013400094C08091E800877F8093E8008091D40169
:101350009091D501892B21F468E082E591E003C0EA
:1013600060E080E090E070E00E945F0B8091E80018
:101370008B778093E80008958091D001813209F045
:1013800074C08091D4019091D501892B09F06DC072
:101390008091E800877F8093E8008091E80082FDDB
:1013A00005C08091CF018111F8CF5FC08091F1001D
:1013B00080935A018091E8008B7753C08091D001CF
:1013C000813A09F052C08091D4019091D501892BC6
:1013D00009F04BC08091E800877F8093E8008091FE
:1013E000E80080FFFCCF80910B0136C08091D001D6
:1013F0008132D9F58091D4019091D501892BA9F53D
:101400008091E800877F8093E8000E944F0C8091D4
:10141000D20180930B010C9417168091D001813278
:1014200021F58091E800877F8093E8000E944F0CAF
:101430008091D30180935B0108958091D001813A1E
:10144000A1F48091E800877F8093E8008091E80014
:1014500080FFFCCF80915B018093F1008091E800D8
:101460008E778093E8000C944F0C089508950C94A7
:10147000360A80915A018093500110925A0180E0FF
:101480000E94EF070E9427110C9417160C94390A3A
:101490000E94511C8091CD01882329F00E947A1C62
:1014A00081110C94FE0A089584B7877F84BF0FB61C
:1014B000F894A895809160008861809360001092F4
:1014C00060000FBE90E080E80FB6F8948093610052
:1014D000909361000FBE89EF97E00E94121C89EA89
:1014E00091E00E94F2050E94370A0E9452100E9469
:1014F000A10C0E94030D8091E20084608093E200C1
:1015000078948091CF018430E1F788E991E00E94DE
:10151000F2050E94541081E091E00E94930F87E849
:1015200091E00E94F2050E94360A8091CF01853039
:1015300019F40E94480AF9CF0E945A10F6CF0E946F
:101540008F1C8091500180935A0108950C949F0A3A
:10155000292F332723303105C9F060F421303105BC
:1015600081F02230310509F041C084E790E021EF9D
:1015700031E040C021323105E1F02232310531F154
:1015800035C082E190E025E632E034C09927813011
:10159000910549F028F0029749F5E9EBF1E005C023
:1015A000EDEEF1E002C0E9EDF1E0849190E09F0101
:1015B00021C06430D8F4E62FF0E0EE0FFF1FE05EAC
:1015C000FE4F2081318189E090E014C0643070F4D6
:1015D00070E0FB01EE0FFF1FE85EFE4F20813181BE
:1015E000FB01EC5EFE4F808190E004C080E090E063
:1015F00020E030E0FA0131832083089584E189BD41
:1016000086E189BD09B400FEFDCF8091D8008F7DB1
:101610008093D8008091E00082608093E000809108
:10162000E00081FDFCCF0895CF92DF92EF92FF9210
:101630000F931F93CF93DF93EC018B017A010E94EC
:101640006E0C811133C0E114F10439F0F70180818F
:101650009181081B190BC80FD91FC12CD12C011562
:10166000110519F18091E80085FD16C08091E80010
:101670008E778093E800E114F10449F0F70180814E
:101680009181C80ED91ED182C08285E00FC00E9410
:101690006E0C882321F30AC089918093F1000150D8
:1016A0001109FFEFCF1ADF0ADACF80E0DF91CF9187
:1016B0001F910F91FF90EF90DF90CF9008952091B0
:1016C000D6013091D7012617370748F0611571050B
:1016D00039F42091E8002E772093E80001C0B90189
:1016E000FC0120E06115710569F18091CF0188232B
:1016F000E1F18530E1F18091E80083FD3AC080910D
:10170000E80082FD2CC08091E80080FFEBCF809143
:10171000F2009091F3006115710551F08830910548
:1017200038F421912093F100615071090196F3CFB3
:1017300021E0089709F020E08091E8008E778093FF
:10174000E800D0CF2111D1CF0AC08091CF018823EA
:1017500061F0853061F08091E80083FD0AC08091DE
:10176000E80082FFF2CF80E0089582E0089583E0F0
:10177000089581E008952091D6013091D701261770
:10178000370748F06115710539F42091E8002E778C
:101790002093E80001C0B901FC0120E0611571054A
:1017A00081F18091CF01882309F43EC0853009F48E
:1017B0003DC08091E80083FD3BC08091E80082FD40
:1017C0002DC08091E80080FFE9CF8091F2009091D8
:1017D000F3006115710559F08830910540F42491AA
:1017E0002093F1003196615071090196F2CF21E00A
:1017F000089709F020E08091E8008E778093E80058
:10180000CDCF2111CECF0AC08091CF01882361F0C6
:10181000853061F08091E80083FD0AC08091E80086
:1018200082FFF2CF80E0089582E0089583E008957A
:1018300081E00895982F973068F59093E900981704
:1018400039F07091EC002091ED005091F00003C050
:10185000242F762F50E021FD02C09F5FECCF309106
:10186000EB003E7F3093EB003091ED003D7F3093F5
:10187000ED003091EB0031603093EB007093EC00A1
:101880002093ED005093F0002091EE0027FDE5CF6E
:1018900080E008958F708093E90081E00895809141
:1018A000D00187FF11C08091E80082FD05C08091C2
:1018B000CF018111F8CF11C08091E8008B770BC068
:1018C0008091CF01882349F08091E80080FFF8CF14
:1018D0008091E8008E778093E80008952091E400DD
:1018E0003091E50095E64091EC00842F817040FF37
:1018F00023C08091E80080FD1DC08091CF01882326
:1019000099F0853099F08091EB0085FD11C04091F0
:10191000E4005091E5002417350729F3915011F0A8
:101920009A01E1CF84E0089582E0089583E008956C
:1019300081E0089580E008954091E80042FFDDCF06
:1019400008950E94120D0E941A0DE0EEF0E08081D1
:1019500081608083E8EDF0E080818F77808319BC1F
:10196000A7EDB0E08C918E7F8C9380818F7E8083F9
:101970001092CE0108950F931F93CF93DF930E948F
:10198000120D0E941A0DC8EDD0E088818F778883F0
:1019900088818068888388818F7D8883E7EDF0E087
:1019A00080818068808319BC1092CF011092CB0196
:1019B0001092CD011092CC0100EE10E0F801808170
:1019C0008B7F808388818160888342E060E080E053
:1019D0000E941A0CE1EEF0E080818E7F8083E2EEBF
:1019E000F0E0808181608083808188608083F8015D
:1019F00080818E7F8083888180618883DF91CF9111
:101A00001F910F910895E8EDF0E080818F7E808333
:101A1000E7EDF0E080818160808381E08093CE01FA
:101A20000C94BB0CE8EDF0E080818C7F80831092F9
:101A3000E20008951092DA001092E10008951F92DA
:101A40000F920FB60F9211240BB60F922F933F9364
:101A50004F935F936F937F938F939F93AF93BF93B6
:101A6000EF93FF938091E10082FF0BC08091E20031
:101A700082FF07C08091E1008B7F8093E1000E948C
:101A800031098091DA0080FF1FC08091D80080FF6B
:101A90001BC08091DA008E7F8093DA008091D9009C
:101AA00080FF0DC084E189BD86E189BD09B400FED7
:101AB000FDCF81E08093CF010E94170905C019BCBA
:101AC0001092CF010E9429098091E10080FF19C086
:101AD0008091E20080FF15C08091E2008E7F8093AC
:101AE000E2008091E20080618093E2008091D80062
:101AF00080628093D80019BC85E08093CF010E945A
:101B0000460A8091E10084FF30C08091E20084FFAA
:101B10002CC084E189BD86E189BD09B400FEFDCFFA
:101B20008091D8008F7D8093D8008091E1008F7ED6
:101B30008093E1008091E2008F7E8093E2008091AB
:101B4000E20081608093E2008091CB01882311F054
:101B500084E007C08091E30087FD02C081E001C0FE
:101B600083E08093CF010E94A60A8091E10083FF69
:101B700029C08091E20083FF25C08091E100877F2A
:101B80008093E10082E08093CF011092CB0180919D
:101B9000E1008E7F8093E1008091E2008E7F809350
:101BA000E2008091E20080618093E20042E060E028
:101BB00080E00E941A0C8091F00088608093F00011
:101BC0000E943009FF91EF91BF91AF919F918F914A
:101BD0007F916F915F914F913F912F910F900BBE2D
:101BE0000F900FBE0F901F9018951F920F920FB677
:101BF0000F9211240BB60F922F933F934F935F9345
:101C00006F937F938F939F93AF93BF93CF93DF9304
:101C1000EF93FF93C091E900CF708091EC00D82F33
:101C2000D17080FDD0E81092E9008091F000877FAC
:101C30008093F00078940E943D0E1092E90080910C
:101C4000F00088608093F000CD2BCF70C093E90046
:101C5000FF91EF91DF91CF91BF91AF919F918F91C4
:101C60007F916F915F914F913F912F910F900BBE9C
:101C70000F900FBE0F901F9018951F93CF93DF9377
:101C8000CDB7DEB7AA970FB6F894DEBF0FBECDBFB3
:101C9000E0EDF1E08091F100819321E0E83DF20771
:101CA000C9F70E9486098091E80083FF24C18091D2
:101CB000D0019091D101492F50E04A30510508F0F0
:101CC0001AC1FA01E45BFF4F0C945529803881F06A
:101CD000823809F010C18091D4018F708093E9009F
:101CE0008091EB0085FB882780F91092E90006C0FF
:101CF0008091CC019091CD01911182609091E8008A
:101D0000977F9093E8008093F1001092F100C8C093
:101D1000282F2D7F09F0EFC0882319F0823061F061
:101D2000EAC08091D201813009F0E5C0933009F01A
:101D300080E08093CD012BC08091D201811127C01A
:101D40008091D4018F7009F4D6C08093E90020916E
:101D5000EB0020FF1CC0933021F48091EB008062E7
:101D600014C09091EB0090619093EB0021E030E083
:101D7000A90102C0440F551F8A95E2F74093EA007B
:101D80001092EA008091EB0088608093EB00109243
:101D9000E9008091E800877F86C08111ACC0109176
:101DA000D2011F778091E3008078812B8093E3003C
:101DB0008091E800877F8093E8000E944F0C80911B
:101DC000E80080FFFCCF8091E30080688093E3000F
:101DD000111102C082E001C083E08093CF018BC06B
:101DE0008058823008F087C08091D2019091D30151
:101DF0008C3D53E0950779F583E08A838AE28983F5
:101E00004FB7F894DE01139620E03EE051E2E32F55
:101E1000F0E050935700E49120FF03C0E295EF708B
:101E20003F5FEF708E2F90E0EA3010F0C79601C050
:101E3000C0968D939D932F5F243149F74FBF8091BA
:101E4000E800877F8093E8006AE270E0CE010196A7
:101E50000E945F0B14C0AE014F5F5F4F6091D401D1
:101E60000E94A80ABC01892B09F445C09091E800A2
:101E7000977F9093E80089819A810E94BB0B8091A3
:101E8000E8008B778093E80036C08038A1F5809118
:101E9000E800877F8093E8008091CB018093F10078
:101EA0008091E8008E778093E8000E944F0C23C059
:101EB000811121C08091D2019091D301992702977D
:101EC000D4F48091E800877F8093E8008091D2016C
:101ED0008093CB010E944F0C8091CB01811106C0F1
:101EE0008091E30087FD02C081E001C084E080931F
:101EF000CF010E9472098091E80083FF0AC080919F
:101F0000E800877F8093E8008091EB0080628093F7
:101F1000EB00AA960FB6F894DEBF0FBECDBFDF91DF
:101F2000CF911F910895909361018093600108956E
:101F3000E0916001F0916101309721F00190F08112
:101F4000E02D099480E00895EF92FF920F931F9384
:101F5000CF93DF93E0916001F09161013097B1F18F
:101F60008C010280F381E02D09958091BA0182FFF6
:101F70002DC080FF04C082E893E00E94F205E801D2
:101F800018E08CE7E82E83E0F82E8091BA0180FFFC
:101F90000BC088811F928F93FF92EF920E948B0655
:101FA0000F900F900F900F90115021961111EDCFBF
:101FB0008091BA0180FF0AC08AE793E0DF91CF9158
:101FC0001F910F91FF90EF900C94F205DF91CF914C
:101FD0001F910F91FF90EF900895E0916001F091B3
:101FE0006101309721F00480F581E02D0994089576
:101FF000CF93DF9320915E0130915F01281739075D
:1020000009F190935F0180935E01E0916001F0918E
:1020100061013097B9F0EC010680F781E02D099558
:102020008091BA0182FF0EC080FF0CC0DF93CF9376
:102030008CE693E09F938F930E948B060F900F90F6
:102040000F900F90DF91CF910895CF93DF93209160
:102050005C0130915D012817390709F190935D010A
:1020600080935C01E0916001F09161013097B9F0DB
:10207000EC010084F185E02D09958091BA0182FF81
:102080000EC080FF0CC0DF93CF938CE593E09F934D
:102090008F930E948B060F900F900F900F90DF91FF
:1020A000CF9108950C9428110E94BC1C0E94A10697
:1020B0000C94CD1E5F926F927F928F929F92AF92FF
:1020C000BF92CF92DF92EF92FF920F931F93CF9325
:1020D000DF9300D000D01F92CDB7DEB70E94C406B8
:1020E00003E611E0512C66246394712C852D0E9427
:1020F000E6074C01F801A080B180A826B926A114FA
:10210000B10439F453940E5F1F4FF6E05F12EECF27
:102110003FC08091BA0181FD0E942911E12CF12C70
:1021200063010E2C02C0CC0CDD1C0A94E2F7C50141
:102130008C219D21892B21F1E9825A8221E0C40161
:102140008C219D21892B09F420E02B830E94C51C42
:102150008160782F9D838C8349815A816B818D8129
:102160000E945F1149815A816B817C818D810E941F
:102170003D1CF80180819181C826D926D182C08278
:10218000FFEFEF1AFF0A8EE0E816F10449F6BACF26
:102190008FEF89838A831B820E94C51C8160782F00
:1021A0009D838C8349815A816B818D810E945F114F
:1021B0000E943C1C0E9450220E94980F9091620144
:1021C000891771F10E94980F809362019091BA0172
:1021D00092FF0EC090FF0CC01F928F938DE893E08A
:1021E0009F938F930E948B060F900F900F900F90EC
:1021F000809162010F900F900F900F900F90DF91E0
:10220000CF911F910F91FF90EF90DF90CF90BF90F3
:10221000AF909F908F907F906F905F900C944E1C2A
:102220000F900F900F900F900F90DF91CF911F9113
:102230000F91FF90EF90DF90CF90BF90AF909F9065
:102240008F907F906F905F9008950C94EF070895A2
:102250000895EF92FF920F931F93CF93DF9387EA36
:1022600093E00E94F205C0E0D0E088E2E82E81E031
:10227000F82E08E913E08C2F0E94E6070E94291C23
:10228000FF92EF929F938F93DF93CF931F930F93C0
:102290000E948B0621968DB79EB708960FB6F894CC
:1022A0009EBF0FBE8DBFC630D10529F7DF91CF91FC
:1022B0001F910F91FF90EF90089508950895CF9387
:1022C000DF93CDB7DEB72B970FB6F894DEBF0FBE06
:1022D000CDBF942F4F83252F588769877A878B87A7
:1022E0004A855B85452B31F02F3F31F481E09F3FDC
:1022F00019F403C081E001C080E080FD07C04F8178
:10230000588569857A858B850E943D1CDE01119672
:1023100086E0FD0111928A95E9F785E0FE01379686
:1023200001900D928A95E1F749815A816B817C81F8
:102330008D819E810E94E1182B960FB6F894DEBF26
:102340000FBECDBFDF91CF910895CF93882309F4BD
:10235000E8C0C82F8238A1F40E94980F81FDE1C027
:1023600089E30E94741B0E94EC1B2FEF81EE94E026
:10237000215080409040E1F700C0000089E315C083
:102380008338C1F40E94980F80FDCBC083E50E9482
:10239000741B0E94EC1B2FEF81EE94E021508040D3
:1023A0009040E1F700C0000083E50E94911BCF91AF
:1023B0000C94EC1B8438A1F40E94980F82FDB1C0EC
:1023C00087E40E94741B0E94EC1B2FEF81EE94E0C7
:1023D000215080409040E1F700C0000087E4E5CF45
:1023E0008CEF8C0F813A48F48C2F0E94AF2681111C
:1023F00098C08C2F0E94741BDACF80E28C0F88303B
:1024000048F4C77081E001C0880FCA95EAF70E94BE
:10241000B21BCDCF8BE58C0F833078F4C53A29F011
:10242000C63A31F083E890E005C081E890E002C050
:1024300082E890E0CF910C94F80F88E58C0F8531FD
:1024400008F06FC0C83A61F1C93A69F1CA3A71F14E
:10245000CB3A79F1CC3A81F1CD3A89F1CE3A91F18A
:10246000CF3A99F1C13BA1F1C03BA9F1C23BB1F117
:10247000C33BB9F1C43BC1F1C53BC9F1C63BD1F186
:10248000C73BD9F1C83BE1F1C93BE9F1CA3BF1F1E6
:10249000CB3BF9F1CC3B09F43FC080E090E03EC07B
:1024A00082EE90E03BC089EE90E038C08AEE90E08A
:1024B00035C085EB90E032C086EB90E02FC083EB17
:1024C00090E02CC084EB90E029C087EB90E026C020
:1024D0008CEC90E023C08DEC90E020C083E891E08C
:1024E0001DC08AE891E01AC082E991E017C084E932
:1024F00091E014C081E292E011C083E292E00EC04C
:1025000084E292E00BC085E292E008C086E292E0AD
:1025100005C087E292E002C08AE292E0CF910C947B
:102520002510CF910895882309F466C08238A1F45C
:102530000E94980F81FF60C089E30E94741B0E9473
:10254000EC1B2FEF81EE94E0215080409040E1F7AA
:1025500000C0000089E315C08338B9F40E94980FC9
:1025600080FF4AC083E50E94741B0E94EC1B2FEF82
:1025700081EE94E0215080409040E1F700C00000DF
:1025800083E50E94911B0C94EC1B8438A1F40E94FB
:10259000980F82FF31C087E40E94741B0E94EC1BDD
:1025A0002FEF81EE94E0215080409040E1F700C091
:1025B000000087E4E6CF9CEF980F913A10F390E289
:1025C000980F983050F4877091E001C0990F8A9568
:1025D000EAF7892F0E94B81BD6CF9BE5980F93305E
:1025E00020F480E090E00C94F80F885A853120F4B4
:1025F00080E090E00C9425100895882321F00E943B
:10260000B21B0C94EC1B0895882321F00E94B81B88
:102610000C94EC1B0895CF92DF92EF92FF920F93F0
:102620001F93CF93DF9300D000D01F92CDB7DEB7BA
:102630006C0185E0F601DE01119601900D928A95FC
:10264000E1F7F6012081818143815481452B31F0EE
:102650008F3F31F491E02F3F19F403C091E001C0A6
:1026600090E090FDC4C2F601F280E580E2949FE024
:10267000E92229838A8389819A810E94331B8C01F4
:102680000E94321B0E94421AE12FE295EF708E2FBA
:1026900090E0FC01EA5AFF4F0C945529812F807F6E
:1026A0001F70882311F01295107FFF2049F011232D
:1026B00009F452C2812F0E94C51B0E94EC1B4CC220
:1026C000802F0E949312112309F491C2812F0E943E
:1026D000CB1B0F900F900F900F900F90DF91CF9129
:1026E0001F910F91FF90EF90DF90CF900C94EC1B17
:1026F000812F807F1F70803211F01295107F002390
:1027000019F0013009F12BC0FF20A9F0EE2059F19A
:10271000F1E0812FEF1228C00F900F900F900F90D3
:102720000F90DF91CF911F910F91FF90EF90DF906D
:10273000CF900C94D51BEE2021F081E0E81609F42F
:1027400056C20E94D81B2DC0FF20E9F0E5E0EE152F
:1027500008F44DC20E94AF1B812329F022C0FF2044
:10276000F1F0E11015C0812F0F900F900F900F9096
:102770000F90DF91CF911F910F91FF90EF90DF901D
:10278000CF900C94FD12F4E0FE1508F430C209C09D
:10279000F601858180FFE0C18F708583E4CFE11071
:1027A000EEC1812F61C1812F86958695837019F0C6
:1027B0008130B9F01CC2FF2019F0C801937002C02B
:1027C00080E090E00F900F900F900F900F90DF91AE
:1027D000CF911F910F91FF90EF90DF90CF900C94CD
:1027E000F80FFF2019F0C801937002C080E090E05C
:1027F0000F900F900F900F900F90DF91CF911F913E
:102800000F91FF90EF90DF90CF900C942510802FC8
:10281000FF2019F00E94D62002C00E943E210F9096
:102820000F900F900F900F90DF91CF911F910F910C
:10283000FF90EF90DF90CF900C94C321812F837095
:1028400009F070C0F110D3C1202F22952695277072
:10285000220F220F602F6F70862F90E0A0E0B0E073
:102860006C017D01022E04C0CC0CDD1CEE1CFF1C93
:102870000A94D2F704FF12C08FE090E0A0E0B0E02D
:1028800004C0880F991FAA1FBB1F2A95D2F7BC014D
:10289000CD01609570958095909503C060E070E0E3
:1028A000CB011695169513701230B1F040F56C29D6
:1028B0007D298E299F29113031F10F900F900F90B3
:1028C0000F900F90DF91CF911F910F91FF90EF909C
:1028D000DF90CF900C94571A6C297D298E299F295F
:1028E0000F900F900F900F900F90DF91CF911F914D
:1028F0000F91FF90EF90DF90CF900C94691A0E9497
:10290000571AC701B6010F900F900F900F900F90BC
:10291000DF91CF911F910F91FF90EF90DF90CF90BB
:102920000C94451AFF2019F0812F817001C0869503
:10293000882309F45CC1202F229526952770220F49
:10294000220F602F6F70862F90E0A0E0B0E06C0146
:102950007D01022E04C0CC0CDD1CEE1CFF1C0A9471
:10296000D2F704FF12C08FE090E0A0E0B0E004C016
:10297000880F991FAA1FBB1F2A95D2F7BC01CD0152
:10298000609570958095909503C060E070E0CB01F4
:102990001695169513701230B1F040F56C297D290B
:1029A0008E299F29113031F10F900F900F900F90C9
:1029B0000F90DF91CF911F910F91FF90EF90DF90DB
:1029C000CF900C940E1B6C297D298E299F290F9086
:1029D0000F900F900F900F90DF91CF911F910F915B
:1029E000FF90EF90DF90CF900C94201B0E940E1B65
:1029F000C701B6010F900F900F900F900F90DF91CD
:102A0000CF911F910F91FF90EF90DF90CF900C949A
:102A1000FC1A003FC1F128F480E4800F803250F0AE
:102A200096C0023F09F45EC008F449C0033F09F4B0
:102A30006CC08DC0F02FF071EF2E812F8F71FF20B1
:102A400051F00E94951A802FEE2019F08295807F18
:102A50008BCE8F7089CE0E94B61A802FEE2019F08F
:102A60008295807F01C08F700F900F900F900F9014
:102A70000F90DF91CF911F910F91FF90EF90DF901A
:102A8000CF900C940413FF20A9F084E08E1508F475
:102A9000AEC0812F8F710F900F900F900F900F90FD
:102AA000DF91CF911F910F91FF90EF90DF90CF902A
:102AB0000C94DB1AE5E0EE1508F499C0EACFFF208C
:102AC00099F0812F8F710F900F900F900F900F90B2
:102AD000DF91CF911F910F91FF90EF90DF90CF90FA
:102AE0000C94951AFF2069F3812F8F710F900F902E
:102AF0000F900F900F90DF91CF911F910F91FF904A
:102B0000EF90DF90CF900C94B61AFF2089F0812FC0
:102B10008F710F900F900F900F900F90DF91CF91CA
:102B20001F910F91FF90EF90DF90CF900C94801A3F
:102B30000F900F900F900F900F90DF91CF911F91FA
:102B40000F91FF90EF90DF90CF900C947B1AFF20B5
:102B500099F0EE2009F4B5CF802F0F900F900F90D1
:102B60000F900F90DF91CF911F910F91FF90EF90F9
:102B7000DF90CF900C94A511EE2009F4B5CF802FF3
:102B80000F900F900F900F900F90DF91CF911F91AA
:102B90000F91FF90EF90DF90CF900C949312412F04
:102BA0004F70602FC6010E94E21D0F900F900F9092
:102BB0000F900F90DF91CF911F910F91FF90EF90A9
:102BC000DF90CF900C948F19412F4F70602FC6016A
:102BD0000F900F900F900F900F90DF91CF911F915A
:102BE0000F91FF90EF90DF90CF900C94E51D0F9028
:102BF0000F900F900F900F90DF91CF911F910F9139
:102C0000FF90EF90DF90CF9008950E94D21B0E941A
:102C1000A11B0E94EC1B0E94F5220E94C32180E0B0
:102C200090E00E94F80F80E090E00C9425100E9444
:102C3000C21B0C9405160E94331B292F22952F705E
:102C40002C3030F42A30A0F42250223030F021C051
:102C50002C30C9F02F30B9F01CC0853A28F48430EC
:102C6000B0F4823028F413C090E2980F983078F0D6
:102C7000883E30F4803E58F48450813A50F407C0C6
:102C8000803F39F404C093FB882780F9089581E0E0
:102C9000089580E00895CF93DF9300D000D01F9275
:102CA000CDB7DEB70F900F900F900F900F90DF9180
:102CB000CF910895CF93DF9300D000D000D0CDB74F
:102CC000DEB726960FB6F894DEBF0FBECDBFDF91FC
:102CD000CF9108951F93CF93DF93C0916F0116E0BA
:102CE00080917001C81799F0D0E01C9FF0011D9FE2
:102CF000F00D1124EF58FE4F4081518162817381A4
:102D0000848195810E945A162196C770E9CFDF9180
:102D1000CF911F9108954091A1015091A20160911E
:102D2000A3017091A4018091A5019091A6010C943A
:102D30005A16CF938091A60182958F7009F05FC0DB
:102D40008091A301882309F45AC080916F01B0914A
:102D500070017091A101A091A2014091A401509134
:102D6000A50191E07F3F09F090E0692FC6E08B1745
:102D700009F445C04115510521F0AF3F21F020E095
:102D800003C021E001C0262F90E020FD35C0C89F80
:102D9000F001C99FF00D1124EF58FE4F21812A1335
:102DA0002BC02081271328C02281211125C0238117
:102DB00034812417350710F421503109241B350BB9
:102DC000283C3105C8F42091A6012F702061209382
:102DD000A60126E0289FF001299FF00D1124EA5852
:102DE000FE4F80818F708061808381EA91E00E9434
:102DF0000B13CF910C946A1601968770B8CFCF91C0
:102E00000895AF92BF92CF92DF92EF92FF920F930D
:102E10001F93CF93DF93CDB7DEB761970FB6F894CA
:102E2000DEBF0FBECDBF8C0185E0F801DE011D962F
:102E300001900D928A95E1F7D8014C9111965C9121
:102E400011971296EC903091A1016091A2018091AE
:102E5000A4019091A501009731F06F3F31F421E07A
:102E60003F3F19F403C021E001C020E0B22FB17050
:102E7000BB2E20FD64C1F801C380D480A090A301C3
:102E8000AA2009F4C3C02091A601C816D90628F0CB
:102E9000D601A81BB90BCD0104C0809590958C0D6F
:102EA0009D1DFF24F394883C910580F0F12C207F38
:102EB00009F09CC07C2DD98AC88A6E2D89890E9410
:102EC0004B1681EA91E00E940B13B4C0822F807FE1
:102ED00009F054C0561314C0431312C0FE2CE11065
:102EE0000FC02F7020612093A6010E948B1681EAEB
:102EF00091E00E940B138091A601F80185834FC1D8
:102F0000CD2831F05F3F31F481E04F3F19F403C029
:102F100081E001C080E080FD03C081E08E2502C019
:102F200080E090E0F82FF170FF2E80FF1CC08091B0
:102F30006F012091700136E0821709F40DC190E015
:102F4000389FF001399FF00D1124EF58FE4F618139
:102F5000561306C06081461303C06281E61203C0A7
:102F600001968770E9CFFE2CEE2009F418C18091FC
:102F7000A60181608093A601F12C11C1561309C0EE
:102F8000431307C0E11005C08091A601F8018583B5
:102F9000B0C04D875E878D859E850E941B16882355
:102FA00079F1EE2069F12091A601822F82958F7030
:102FB00090E0029774F08091A1019091A20198870E
:102FC0008F831986DB86CA862C87CE0107960E94DE
:102FD0000B1386E0F801A1EAB1E001900D928A9509
:102FE000E1F70E9499160E948B160DC0561761F1E9
:102FF0004D875E878D859E850E941B16811138C086
:10300000C8010E940B13FF24F394C9C0C816D90647
:1030100008F446C0F601E81BF90BCF01883C910586
:1030200008F443C0F12C7C2DD98AC88A6E2D898979
:103030000E944B16E1EAF1E086E0DF011D928A95DD
:10304000E9F70E948B16ABC04313D2CFE110D0CF6B
:103050008091A601F8018583C8010E940B1386E0C8
:10306000E1EAF1E0DF011D928A95E9F7FA2C97C0B9
:10307000EE2031F22091A601822F82958F7090E090
:1030800002970CF4A6CF8091A1019091A2019A839E
:1030900089831B82DD82CC822E83CE01019697CF5D
:1030A000809590958C0D9D1DB9CFFE2CEE2009F4D6
:1030B000A7CF561333C0431331C02091A60120FD82
:1030C00024C0822F82958F70482F50E04115510502
:1030D000E1F0D80115962C9315974F30510549F022
:1030E0008F5F982F9295907F822F8F70892B1596E6
:1030F0008C93C8010E940B1386E0F801A1EAB1E0AD
:1031000001900D928A95E1F79CCF86E0F801A1EA43
:10311000B1E001900D928A95E1F741C04D875E873D
:103120008D859E850E941B16811153CF8091A6012B
:1031300081608093A601C8010E940B1330C0EE206D
:1031400009F45ECF4D875E878D859E850E941B1694
:10315000882309F455CF3DCF4D875E878D859E85A9
:103160000E94331B292F22952F70223028F49F7044
:1031700039F0811105C00BC0243028F49F7049F448
:10318000805E883020F0C8010E940B13BF2CFB2CFE
:1031900006C0D80115969C91907F91F7F8CF8F2D9E
:1031A00061960FB6F894DEBF0FBECDBFDF91CF9111
:1031B0001F910F91FF90EF90DF90CF90BF90AF9055
:1031C00008951F93CF93DF93CDB7DEB72C970FB63B
:1031D000F894DEBF0FBECDBF4F83588769877A87CB
:1031E0008B879C87CE0107960E9401178823D1F018
:1031F0009F8188852A853B85232B31F08F3F31F4D1
:1032000081E09F3F19F403C081E001C080E080FDB0
:1032100047C04F81588569857A858B859C850E943A
:103220005A163EC086E0FE013796DE0111960190E7
:103230000D928A95E1F7FF81E8856A857B856115A6
:10324000710531F0EF3F31F481E0FF3F19F403C025
:1032500081E001C080E080FD23C02091700130E05A
:10326000C90101968770992740916F0150E084173A
:103270009507F1F1F983EA837D836C8396E0929F51
:10328000D001939FB00D1124AF58BE4FFE0131966F
:1032900001900D929A95E1F7809370010E946A1651
:1032A00016E080916F0190917001891771F1189F5C
:1032B000C00111248F589E4F0E940117882329F1C5
:1032C000E0916F011E9FF0011124EF58FE4F4081E5
:1032D000518162817381848195810E945A16809107
:1032E0006F0190E001968770992780936F01D9CF85
:1032F0000E9417161092700110926F01E1EAF1E03E
:1033000086E0DF011D928A95E9F72C960FB6F894B6
:10331000DEBF0FBECDBFDF91CF911F910895DF9229
:10332000EF92FF920F931F93CF93DF93FC01892BB2
:1033300009F488C0E12CF12CDD24D394EF0121960F
:103340008491853709F460C058F4843708F04EC082
:10335000843008F068C08130D1F0823071F172C0E1
:10336000883709F45BC050F4863709F453C08737B7
:1033700009F068C08E2D0E94BF1B52C09CE7980FB9
:10338000903708F05FC08F770E9493124EC08F0174
:103390000E5F1F4FFE01849190E2980F983050F419
:1033A0008770FD2D01C0FF0F8A95EAF78F2F0E94CD
:1033B000C51B15C00E94A51114C08F010E5F1F4FC1
:1033C000FE01849190E2980F983068F48770FD2D8B
:1033D00001C0FF0F8A95EAF78F2F0E94CB1B0E9436
:1033E000EC1BE80122C00E949312FBCFCF01029692
:1033F000FE01C491CC2361F0EFE9FFE03197F1F7D2
:1034000000C00000C150F6CFCF010296FE01F4903B
:10341000EC010BC00E94AF1BE82E07C00E94C21B2C
:103420000E94EC1B02C00E94A5118F2D882341F041
:10343000EFE9FFE03197F1F700C000008150F6CFCF
:10344000FE017CCFDF91CF911F910F91FF90EF9004
:10345000DF9008956093AB017093AC018093AD0150
:103460009093AE010E944C1C0C9405166093A7012A
:103470007093A8018093A9019093AA010E944D1C0A
:103480000C94051608950C942A1A0F931F9300911B
:10349000AB011091AC012091AD013091AE01602BD8
:1034A000712B822B932B1F910F910C942A1A0F933F
:1034B0001F930091AB011091AC012091AD013091AF
:1034C000AE0160237123822393231F910F910C94EB
:1034D0002A1A0F931F930091AB011091AC01209118
:1034E000AD013091AE0160277127822793271F918C
:1034F0000F910C942A1A60E070E0CB010C94361AFC
:103500000F931F9341E050E060E070E08A019B015F
:1035100004C0000F111F221F331F8A95D2F7C90163
:10352000B8011F910F910C94361A0F931F9341E02D
:1035300050E060E070E004C0440F551F661F771F25
:103540008A95D2F78091A7019091A801A091A90135
:10355000B091AA018A019B01082B192B2A2B3B2B26
:10356000C901B8011F910F910C94361A0F931F9344
:1035700041E050E060E070E004C0440F551F661F5A
:10358000771F8A95D2F740955095609570958091F8
:10359000A7019091A801A091A901B091AA018A0167
:1035A0009B01082319232A233B23C901B8011F913A
:1035B0000F910C94361A0F931F9341E050E060E096
:1035C00070E004C0440F551F661F771F8A95D2F71D
:1035D0008091A7019091A801A091A901B091AA01A1
:1035E0008A019B01082719272A273B27C901B8010F
:1035F0001F910F910C94361A0F931F930091A701FE
:103600001091A8012091A9013091AA01602B712B82
:10361000822B932B1F910F910C94361A0F931F93AB
:103620000091A7011091A8012091A9013091AA0150
:1036300060237123822393231F910F910C94361AD8
:103640000F931F930091A7011091A8012091A90148
:103650003091AA0160277127822793271F910F912C
:103660000C94361A0895CF92DF92EF92FF920F9347
:103670001F93CF93DF938C01C090A701D090A80136
:10368000E090A901F090AA018091AB019091AC016A
:10369000A091AD01B091AE01C82AD92AEA2AFB2A2D
:1036A000CFE1D0E0D701C6010C2E04C0B695A79596
:1036B000979587950A94D2F780FF07C0B8018C2FA1
:1036C0000E94FF1D8130910531F4219758F7B80110
:1036D00080E00E94FF1DDF91CF911F910F91FF901D
:1036E000EF90DF90CF90089520910C0130910D0163
:1036F000F90132969FEF40E05191851789F09F3F85
:1037000019F4511101C0942F4F5F4630A9F79F3F24
:1037100039F0F901E90FF11D97FDFA9582830895BB
:103720000895E0910C01F0910D019F012A5F3F4F38
:103730009281891301C012823196E217F307C1F713
:10374000089581E090E0E0910C01F0910D01E80F07
:10375000F91F1082019688309105A9F7089580918C
:10376000B90108959091B901892B8093B901089509
:1037700080959091B90189238093B9010895809330
:10378000B90108951092B90108959091B801892B5B
:103790008093B801089580959091B8018923809312
:1037A000B80108951092B80108958093AF0108956B
:1037B0001092AF01089580910C0190910D01FC01D0
:1037C00031969C01285F3F4F80E0919191118F5F6E
:1037D000E217F307D1F70895E0910C01F0910D0184
:1037E0008091B9018083E0910C01F0910D019081ED
:1037F0008091B801892B80838091AF01882361F08B
:10380000E0910C01F0910D019081892B80830E9441
:10381000DB1B81111092AF0180910C0190910D0181
:103820000C94A40F909335018093340108958295F0
:10383000982F937344E0949F900111248C7C86957B
:103840008695282B822F8575880F2A7A2695822BBC
:103850000895CF93DF93D92F0E94171CC82F8D2F67
:103860000E94171C2C2F30E0322F2227A901482B51
:10387000CA01DF91CF9108950895CF93DF9300D0CF
:1038800000D01F92CDB7DEB70F900F900F900F9022
:103890000F90DF91CF910895089508950C9425110C
:1038A00008958091CF01843021F11092BB0120E472
:1038B00088E190E00FB6F894A895809360000FBE61
:1038C0002093600083B7817F846083BF83B781606A
:1038D00083BF7894889583B78E7F83BF0FB6F894A3
:1038E000A8958091600088618093600010926000CC
:1038F0000FBE0895CF930E945D110E94C4060E94DE
:103900005E11C0E08C2F0E94E607892B29F4CF5F5F
:10391000C630C1F780E001C081E0CF9108950E94D8
:1039200027110C9417161F920F920FB60F921124A5
:103930008F939F93AF93BF938091BB01811113C06D
:103940008091BC019091BD01A091BE01B091BF01D9
:103950004196A11DB11D8093BC019093BD01A09320
:10396000BE01B093BF01BF91AF919F918F910F9016
:103970000FBE0F901F90189582E084BD93E095BD17
:103980009AEF97BD80936E0008952FB7F8948091B9
:10399000BC019091BD01A091BE01B091BF012FBFAC
:1039A00008952FB7F8946091BC017091BD0180918A
:1039B000BE019091BF012FBF0895CF92DF92EF9289
:1039C000FF920F931F932FB7F8944091BC01509131
:1039D000BD016091BE017091BF012FBF6A017B01E3
:1039E000EE24FF248C0120E030E0C016D106E20670
:1039F000F30610F4415051099A01281B390BC901F3
:103A00001F910F91FF90EF90DF90CF9008951F923C
:103A10000F920FB60F9211248F939F93AF93BF9382
:103A20008091BC019091BD01A091BE01B091BF01F8
:103A30000196A11DB11D8093BC019093BD01A0937F
:103A4000BE01B093BF01BF91AF919F918F910F9035
:103A50000FBE0F901F9018950E94A10CF8942FEFA5
:103A600087EA91E6215080409040E1F700C00000D5
:103A700087E090EBDC018093D9019093DA01A09369
:103A8000DB01B093DC019CE088E10FB6F894A895C7
:103A9000809360000FBE90936000FFCF8D3B60F479
:103AA000883A90F5853A28F5843008F5813009F098
:103AB00086C081E090E00895883E98F4803EB8F496
:103AC0008F3B09F07CC00E9417162FEF80E792E031
:103AD000215080409040E1F700C000000E942C1D62
:103AE0006EC0803F08F46BC090E09065089590E050
:103AF0000895853A21F0863A21F033E803C031E891
:103B000001C032E820E458C0883A51F1893A59F1AD
:103B10008A3A59F18B3A59F18C3A59F18D3A59F167
:103B20008E3A59F18F3A59F1813B59F1803B59F165
:103B3000823B59F1833B59F1843B59F1853B59F163
:103B4000863B61F1873B61F1883B61F1893B61F123
:103B50008A3B61F18B3B61F18C3B61F130E001C04C
:103B600032EE24E429C039EEFCCF3AEEFACF35EB41
:103B7000F8CF36EBF6CF33EBF4CF34EBF2CF37EBB5
:103B8000F0CF3CECEECF3DECECCF33E805C03AE8AB
:103B900003C032E901C034E925E40EC031E20BC0B4
:103BA00033E209C034E207C035E205C036E203C0A3
:103BB00037E201C03AE226E4832F922F089580E095
:103BC00090E0089580E090E00895089524E5829FB4
:103BD000C0011124FC012EE0729FE00DF11D1124A3
:103BE000E60FF11DE253FF4F84910895E82FF0E0B6
:103BF000EE0FFF1FE45BF0408591949108950E94C1
:103C0000E61D803EA8F4803C00F5813309F45CC0D9
:103C100038F4893209F452C08A3209F45BC05FC0BB
:103C20008933B1F08238A1F0853309F441C057C01F
:103C3000833E41F128F4803E99F0823EB9F04FC0B6
:103C4000863E31F1873E71F14AC00E94F61D08950B
:103C50009091D80190FD02C091FF41C080EE3FC01D
:103C60008091D80180FFFACF89E339C08091D801D3
:103C700082FF0CC08091D80184FF02C080E02FC079
:103C800083EE2DC08091D80182FFF4CF82EE27C051
:103C90008091D80183FF0AC08091D80184FDEECFC6
:103CA00087EE1DC08091D80183FFF6CF86EE17C046
:103CB0008091D80185FF06C089E211C08091D801AA
:103CC00085FFFACF85E30BC08091D80186FF06C03F
:103CD0008AE205C08091D80186FFFACF81E30E9475
:103CE0004E1D0895BF92CF92DF92EF92FF920F93F5
:103CF0001F93CF93DF93EC01B12C01E010E08B2DEB
:103D00000E94E6077C01C12CD12CC8010C2C02C0FA
:103D1000880F991F0A94E2F78E219F21892BA9F021
:103D20006C2D7B2D80E00E94FF1D8C179D0759F0A4
:103D3000292F207E392F307C11F0203A31F490E089
:103D4000C817D90711F481E00CC08FEFC81AD80A40
:103D50008EE0C816D104C9F6B39486E0B812CFCF6E
:103D600080E0DF91CF911F910F91FF90EF90DF9056
:103D7000CF90BF900895CF93DF93EC018CE290E059
:103D80000E94721E882329F0CE01DF91CF910C94FE
:103D9000721E80E0DF91CF910895CF930E942E2074
:103DA000811102C00E94142084EC93E00E94F2056D
:103DB000C5E6C15049F00E94C4068FE39CE9019713
:103DC000F1F700C00000F5CF8DEB93E00E94F20503
:103DD00089E290E00E94BB1E811124C18AE290E03A
:103DE0000E94BB1E81110E94142085E090E00E9479
:103DF000BB1E81110E942C1D0E94501C0E94392064
:103E00008093BA0187E090E00E94BB1E8823C1F135
:103E10008BE190E00E94BB1E882351F08091BA0193
:103E200081FB222720F991E0922790FB81F90FC0B6
:103E30008EE090E00E94BB1E882361F08091BA0161
:103E400082FB222720F991E0922790FB82F9809350
:103E5000BA0116C080E190E00E94BB1E9091BA01A9
:103E6000882341F093FB222720F981E0822780FB01
:103E700093F904C0892F809580FB90F99093BA0143
:103E80008091BA010E943D200E944B208093D8016E
:103E900080EE90E00E94BB1E882341F08091D80103
:103EA000982F909590FB80F98093D80189E390E05A
:103EB0000E94BB1E882359F08091D80181FB2227E4
:103EC00020F991E0922790FB81F98093D80182EE4E
:103ED00090E00E94BB1E882359F08091D80182FB9C
:103EE000222720F991E0922790FB82F98093D80154
:103EF00086EE90E00E94BB1E882359F08091D80185
:103F000083FB222720F991E0922790FB83F980938D
:103F1000D80183EE90E00E94BB1E882359F0809167
:103F2000D80184FB222720F991E0922790FB84F9A5
:103F30008093D80185E390E00E94BB1E882359F04E
:103F40008091D80185FB222720F991E0922790FBF0
:103F500085F98093D80181E390E00E94BB1E8823FD
:103F600059F08091D80186FB222720F991E0922711
:103F700090FB86F98093D80181E190E00E94BB1EFE
:103F8000882359F08091D80187FB222720F991E0FE
:103F9000922790FB87F98093D8018091D8010E94E5
:103FA0004F2087E290E00E94BB1EC82F8EE190E078
:103FB0000E94BB1E8111C2608FE190E00E94BB1E77
:103FC0008111C46080E290E00E94BB1E8111C86034
:103FD00081E290E00E94BB1E8111C06182E290E00C
:103FE0000E94BB1E8111C06283E290E00E94BB1E52
:103FF0008111C06484E290E00E94BB1E882311F00E
:10400000C06802C0CC2329F08C2F0E9446206C2F60
:1040100003C00E944220682F70E080E090E0CF91C2
:104020000C94431ACF9108956DEE7EEF80E090E0FE
:104030000E948E2960E082E090E00E94802960E08A
:1040400083E090E00E94802960E084E090E00E949C
:10405000802960E085E090E00C94802980E090E089
:104060000E947A2921E08D3E9E4F09F020E0822FA8
:10407000089582E090E00C947229682F82E090E02D
:104080000C94802983E090E00C947229682F83E0DF
:1040900090E00C94802984E090E00C947229682FC1
:1040A00084E090E00C9480298091C20180FF0BC0D5
:1040B0006091110185E0689FB001112475956795A5
:1040C000759567952BC081FF09C06091110185E04E
:1040D000689FB00111247595679520C082FF07C0C5
:1040E0006091110185E0689FB001112417C0909183
:1040F000C3019923D1F060911001961788F72091A0
:10410000110185E0289F90011124929FA001939FA7
:10411000500D112470E0CA010E94412960387105D8
:1041200040F46115710519F406C065E070E0862F52
:1041300008958FE7089581E008958091C20180FF7E
:1041400008C060910F0170E075956795759567954A
:1041500021C081FF06C060910F0170E075956795E1
:1041600019C082FF04C060910F0170E010C09091EF
:10417000C301992399F060910E019617A0F78091E1
:104180000F01899FC001112470E00E94412960380D
:10419000710540F46115710519F406C061E070E025
:1041A000862F08958FE7089581E00895803F21F4D8
:1041B0000E945420819504C0813F29F40E9454201C
:1041C0008093C6010895823F21F40E945420819576
:1041D00004C0833F29F40E9454208093C5010895B0
:1041E000893F19F40E949D2005C08A3F31F40E9446
:1041F0009D2081958093C70108958B3F21F40E94F3
:104200009D20819504C08C3F29F40E949D208093BD
:10421000C8010895843F21F48091C401816017C0D2
:10422000853F21F48091C401826011C0863F21F452
:104230008091C40184600BC0873F21F48091C40148
:10424000886005C0883F31F48091C401806180930B
:10425000C40108958D3F21F48091C20181600BC09B
:104260008E3F21F48091C201826005C08F3F29F406
:104270008091C20184608093C2010895803F39F427
:104280008091C60187FF6CC01092C60169C0813F52
:1042900029F48091C6011816BCF362C09091C50143
:1042A000823F29F497FF5CC01092C50159C0833F3B
:1042B00019F41916CCF354C0893F41F48091C70119
:1042C00018160CF04DC01092C7014AC08A3F29F45D
:1042D0008091C70187FF44C0F6CF8B3F39F48091AE
:1042E000C80187FF3DC01092C8013AC08C3F29F435
:1042F0008091C8011816BCF333C0843F21F480912B
:10430000C4018E7F17C0853F21F48091C4018D7F49
:1043100011C0863F21F48091C4018B7F0BC0873F81
:1043200021F48091C401877F05C0883F31F48091DA
:10433000C4018F7E8093C40113C08D3F21F480910E
:10434000C2018E7F0BC08E3F21F48091C2018D7F10
:1043500005C08F3F29F48091C2018B7F8093C201F9
:104360008091C50181110EC08091C60181110AC0E2
:104370008091C701811106C08091C801811102C0DE
:104380001092C30108958091BA0183FF7EC080E03E
:1043900094E00E94F2058091C4011F928F938BEFED
:1043A00093E09F938F930E948B0689EF93E00E9486
:1043B000F2058091C501282F082E000C330B3F9386
:1043C0008F9386EF93E09F938F930E948B0684EFE9
:1043D00093E00E94F2058091C601282F082E000C60
:1043E000330B3F938F9381EF93E09F938F930E94C2
:1043F0008B068FEE93E00E94F2058091C701282F73
:10440000082E000C330B3F938F938CEE93E09F9319
:104410008F930E948B068AEE93E00E94F2058091B2
:10442000C801282F082E000C330B3F938F9387EE83
:1044300093E09F938F930E948B0684EE93E00E94FB
:10444000F2058091C3011F928F9381EE93E09F93B9
:104450008F930E948B068FED93E00E94F20580916E
:10446000C2011F928F938CED93E09F938F930E94D4
:104470008B0689ED93E00E94F2058DB79EB74C96AE
:104480000FB6F8949EBF0FBE8DBF84EC91E00E94E2
:10449000ED0F0E94C51C9093C1018093C001089547
:1044A0001F93CF93DF938091C0019091C1010E942F
:1044B000DD1CAC019091C301992321F020911201E0
:1044C00030E006C0209113018AE0289F900111245A
:1044D0004217530708F485C08091C501C091C601F9
:1044E000D091C7011091C801811107C0C11175C0D9
:1044F000D11173C0111171C074C09F3F19F09F5F3B
:104500009093C301181624F40E9454208093C5018F
:104510008091C50187FF05C00E945420819580933A
:10452000C5011C1624F40E9454208093C60180917A
:10453000C60187FF05C00E94542081958093C60163
:104540006091C501662331F1C091C601CC2311F100
:10455000062E000C770B880B990B0E943C2823E356
:1045600033E343E35FE30E94A0280E9404286093A2
:10457000C5016C2FCC0F770B880B990B0E943C2840
:1045800023E333E343E35FE30E94A0280E9404286F
:104590006093C6011D1624F40E949D208093C701DC
:1045A0008091C70187FF05C00E949D20819580935F
:1045B000C701111624F40E949D208093C8018091A8
:1045C000C80187FF05C00E949D2081958093C80186
:1045D000DF91CF911F910C94C3219F3F09F08FCFA2
:1045E000A0CFDF91CF911F910895E4ECF1E085E039
:1045F000DF011D928A95E9F71092C3011092C20162
:10460000089583E296E00E94F2051F9281E08F9365
:104610001F9285E08F9385ED95E09F938F930E9485
:104620008B060F900F900F900F900F900F900895A2
:104630008330E9F128F4813061F0823009F1089586
:10464000853009F462C008F449C0863009F474C0AA
:10465000089580911301262F30E0280F311D2F3F40
:10466000310524F4680F6093130103C08FEF80932A
:104670001301809113011F928F938EE095E072C019
:1046800080911201262F30E0280F311D2F3F310578
:1046900024F4680F6093120103C08FEF809312011E
:1046A000809112011F928F938CEF94E05BC08091F8
:1046B0001101262F30E0280F311D2F3F310524F442
:1046C000680F6093110103C08FEF809311018091F7
:1046D00011011F928F9389EE94E044C080911001E4
:1046E000262F30E0280F311D2F3F310524F4680FAD
:1046F0006093100103C08FEF80931001809110012F
:104700001F928F9384ED94E02DC080910F01262F8E
:1047100030E0280F311D2F3F310524F4680F6093DE
:104720000F0103C08FEF80930F0180910F011F9243
:104730008F938BEB94E016C080910E01262F30E012
:10474000280F311D2F3F310524F4680F60930E01AF
:1047500003C08FEF80930E0180910E011F928F9303
:1047600080EA94E09F938F930E948B060F900F90A6
:104770000F900F900895833081F128F4813059F023
:104780008230D1F00895853009F449C0B8F18630FF
:1047900009F456C0089580911301681720F4861B10
:1047A0008093130102C010921301809113011F9294
:1047B0008F9381E994E054C080911201681720F42E
:1047C000861B8093120102C0109212018091120187
:1047D0001F928F938FE794E043C080911101681777
:1047E00020F4861B8093110102C010921101809168
:1047F00011011F928F938CE694E032C080911001DA
:10480000681720F4861B8093100102C010921001DB
:10481000809110011F928F9387E594E021C08091D1
:104820000F01681720F4861B80930F0102C01092BD
:104830000F0180910F011F928F938EE394E010C0BF
:1048400080910E01681720F4861B80930E0102C030
:1048500010920E0180910E011F928F9383E294E0DB
:104860009F938F930E948B060F900F900F900F9045
:104870000895CF93C82F1F928F9388E297E09F935C
:104880008F930E948B0681E090E0A0E0B0E0BC0135
:10489000CD0104C0660F771F881F991FCA95D2F7F4
:1048A0000E94431A0F900F900F900F90CF910C948D
:1048B0001716CF938732B0F58E3108F040C28E3094
:1048C00009F4BEC100F5873009F48DC1A8F4863023
:1048D00009F039C28091BA01817F8E7F8093BA013D
:1048E0008DE297E00E94F20587E29BE00E94F205CC
:1048F00081E08093CA0175C1883009F43FC08B30D4
:1049000009F46BC120C2863109F4E0C120F4803182
:1049100009F4AAC118C2893109F4C1C18B3109F463
:104920007BC111C2883309F458C150F4893209F4AB
:1049300004C2853309F401C2873209F004C2FDC103
:10494000833409F4FAC128F48A3308F4FCC189538A
:10495000F7C1883409F0F7C10E94171686E19BE081
:104960000E94F2059FEF23ED80E3915020408040AC
:10497000E1F700C000000E942C1D33C18BE29BE0D8
:104980000E94F20584E299E00E94F2050E94422012
:104990001F928F9381E299E09F938F930E948B06E1
:1049A0008FE199E00E94F2050E943920C82F8CE027
:1049B00099E00E94F2051F92CF9387E099E09F93C0
:1049C0008F930E948B0685E099E00E94F2058BEFA1
:1049D00098E00E94F2058C2F81701F928F9388EFD0
:1049E00098E09F938F930E948B0686EF98E00E9439
:1049F000F2058CEE98E00E94F205C1FB882780F951
:104A00001F928F9389EE98E09F938F930E948B065D
:104A100087EE98E00E94F2058BED98E00E94F20587
:104A2000C2FB882780F91F928F9388ED98E09F93AF
:104A30008F930E948B0686ED98E00E94F2058DEC24
:104A400098E00E94F205C3FBCC27C0F91F92CF93D8
:104A50008AEC98E09F938F930E948B0688EC98E0F5
:104A60000E94F2050E944B20C82F84EB98E00E9420
:104A7000F2051F92CF938FEA98E09F938F930E9445
:104A80008B068DEA98E00E94F20584E998E00E9486
:104A9000F2058C2F81701F928F9381E998E09F938C
:104AA0008F930E948B068DB79EB780960FB6F894B1
:104AB0009EBF0FBE8DBF8FE898E00E94F20588E789
:104AC00098E00E94F205C1FB882780F91F928F931E
:104AD00085E798E09F938F930E948B0683E798E089
:104AE0000E94F20581E698E00E94F205C2FB882749
:104AF00080F91F928F938EE598E09F938F930E9489
:104B00008B068CE598E00E94F2058AE498E00E940A
:104B1000F205C3FB882780F91F928F9387E498E002
:104B20009F938F930E948B0685E498E00E94F20584
:104B30008BE398E00E94F205C4FB882780F91F925E
:104B40008F9388E398E09F938F930E948B0686E370
:104B500098E00E94F20584E298E00E94F205C5FB0D
:104B6000882780F91F928F9381E298E09F938F931B
:104B70000E948B068FE198E00E94F20583E098E0A6
:104B80000E94F205C6FB882780F91F928F9380E070
:104B900098E09F938F930E948B068EEF97E00E9480
:104BA000F20586EF97E00E94F205C7FBCC27C0F91B
:104BB0001F92CF9383EF97E09F938F930E948B0672
:104BC00081EF97E00E94F2058DB79EB74C960FB625
:104BD000F8949EBF0FBE8DBF04C084E597E00E948D
:104BE000F205C1E0B5C08091BA01C82FC17080FF45
:104BF00009C089E09BE00E94F2058091BA01817FA3
:104C00008E7F47C08DEF9AE00E94F2058091BA0135
:104C100081608093BA01E5CF9091BA0191FBCC27D6
:104C2000C0F981E0C827892FC0FB81F98093BA01C0
:104C3000CC2319F080EF9AE027C082EE9AE0CFCF24
:104C40009091BA0192FBCC27C0F981E0C827892F47
:104C5000C0FB82F98093BA01CC2319F083ED9AE06E
:104C600013C083EC9AE0BBCF9091BA0193FBCC27A1
:104C7000C0F981E0C827892FC0FB83F98093BA016E
:104C8000CC2351F087EB9AE00E94F2058091BA01A3
:104C900081608093BA015CC08AEA9AE0A0CF8BE978
:104CA0009AE00E94F20582E79AE00E94F20583E30F
:104CB0009AE00E94F2058BE09AE00E94F2058BECEC
:104CC00099E00E94F2058FE999E089CF81E999E0A6
:104CD0000E94F2050E94980F1F928F9387E799E038
:104CE0009F938F930E948B0680910B011F928F934D
:104CF00080E699E09F938F930E948B0680915B01E1
:104D00001F928F938DE499E09F938F930E948B065F
:104D10000E94D11C9F938F937F936F9386E399E0BA
:104D20009F938F930E948B068DB79EB742960FB6C6
:104D3000F8949EBF0FBE8DBF54CF80E001C08D514F
:104D40000E9439244ECF84E399E00E94F205C0E02E
:104D50008C2FCF91089580E008950C94AB26CF93CB
:104D6000C82F8091CA01813071F020F0823009F49F
:104D70004BC042C1E0910C01F0910D018081823263
:104D800009F03CC107C0E0910C01F0910D01808158
:104D9000823261F48C2F0E94AD26811104C08C2FC9
:104DA0000E9459242FC081E090E02CC08C2F0E94DB
:104DB000AB26811126C0C431E1F070F4CB3081F014
:104DC000C031D1F40E94012380E297E00E94F205F5
:104DD00082E08093CA0115C0C93259F0C83361F42A
:104DE0008DE297E00E94F20584E297E00E94F205CE
:104DF00008C01092CA0104C18EE197E00E94F2053A
:104E0000FFC081E08170FEC0C43228F5CE3108F0C9
:104E1000C1C0CB30A1F1D0F4C73009F0D3C08EE1CE
:104E20008093130182E3809312018AE08093110141
:104E300084E18093100188E080930F0188E28093E1
:104E40000E0184EC95E00E94F205BFC0C33149F128
:104E5000C431C1F0B7C0CB3409F4A9C028F4C932B9
:104E600089F0C83361F0AEC0C13509F49EC0C235C7
:104E700009F499C0CE3409F0A5C06AE09EC00E9432
:104E80000123A3C08091C901882319F01092C901A0
:104E90009CC081ED95E00E94F20581E08093CA01FB
:104EA000B1C08BEA95E00E94F20589E995E00E9485
:104EB000F205809113011F928F9386E995E09F93ED
:104EC0008F930E948B0684E995E00E94F20582E8A8
:104ED00095E00E94F205809112011F928F938FE757
:104EE00095E09F938F930E948B068DE795E00E943B
:104EF000F2058EE695E00E94F205809111011F9265
:104F00008F938BE695E09F938F930E948B0689E6A3
:104F100095E00E94F20588E595E00E94F2058091F7
:104F200010011F928F9385E595E09F938F930E94C8
:104F30008B0683E595E00E94F2058EE395E00E94E2
:104F4000F20580910F011F928F938BE395E09F9361
:104F50008F930E948B0689E395E00E94F20582E21E
:104F600095E00E94F20580910E011F928F938FE1D0
:104F700095E09F938F930E948B068DE195E00E94B0
:104F8000F2058DB79EB748960FB6F8949EBF0FBE38
:104F90008DBF1BC0CE51EC2FF0E0E75DFE4F80814E
:104FA0008093C90112C061E003C061E006C06AE0FD
:104FB0008091C9010E94182308C08091C9010E94F4
:104FC000BB2303C082EC95E013C08091C901882304
:104FD00069F01F928F938CEB95E09F938F930E94C3
:104FE0008B060F900F900F900F9004C089EB95E007
:104FF0000E94F20581E006C01092CA0180E002C062
:1050000080E000CFCF9108950E940B286894B111E1
:105010000C949A2808950E947F2888F09F5798F052
:10502000B92F9927B751B0F0E1F0660F771F881FAD
:10503000991F1AF0BA95C9F714C0B13091F00E94C7
:105040009928B1E008950C949928672F782F882724
:10505000B85F39F0B93FCCF3869577956795B395EE
:10506000D9F73EF490958095709561957F4F8F4F5D
:105070009F4F0895E89409C097FB3EF49095809562
:10508000709561957F4F8F4F9F4F9923A9F0F92F0E
:1050900096E9BB279395F695879577956795B7958C
:1050A000F111F8CFFAF4BB0F11F460FF1BC06F5F72
:1050B0007F4F8F4F9F4F16C0882311F096E911C084
:1050C000772321F09EE8872F762F05C0662371F0A5
:1050D00096E8862F70E060E02AF09A95660F771FB9
:1050E000881FDAF7880F9695879597F9089557FDE9
:1050F0009058440F551F59F05F3F71F04795880F46
:1051000097FB991F61F09F3F79F0879508951216DC
:1051100013061406551FF2CF4695F1DF08C0161688
:1051200017061806991FF1CF869571056105089439
:105130000895E894BB2766277727CB0197F9089550
:105140000E94B3280C9424290E94162938F00E944A
:105150001D2920F0952311F00C940D290C9413298E
:1051600011240C949A280E94772870F3959FC1F31C
:10517000950F50E0551F629FF001729FBB27F00D05
:10518000B11D639FAA27F00DB11DAA1F649F66275A
:10519000B00DA11D661F829F2227B00DA11D621FA9
:1051A000739FB00DA11D621F839FA00D611D221F63
:1051B000749F3327A00D611D231F849F600D211D47
:1051C000822F762F6A2F11249F5750409AF0F1F0CA
:1051D00088234AF0EE0FFF1FBB1F661F771F881F33
:1051E00091505040A9F79E3F510580F00C940D2935
:1051F0000C949A285F3FE4F3983ED4F38695779514
:105200006795B795F795E7959F5FC1F7FE2B880FD8
:10521000911D9695879597F9089597F99F6780E86E
:1052200070E060E008959FEF80EC089500240A94F8
:105230001616170618060906089500240A94121671
:105240001306140605060895092E0394000C11F4A4
:10525000882352F0BB0F40F4BF2B11F460FF04C051
:105260006F5F7F4F8F4F9F4F0895991B79E004C068
:10527000991F961708F0961B881F7A95C9F7809595
:10528000089597FB072E16F4009407D077FD09D0F8
:105290000E945E2907FC05D03EF4909581959F4FB2
:1052A0000895709561957F4F0895EE0FFF1F0024BC
:1052B000001C0BBE0790F691E02D0994AA1BBB1BA6
:1052C00051E107C0AA1FBB1FA617B70710F0A61B06
:1052D000B70B881F991F5A95A9F780959095BC0127
:1052E000CD010895F999FECF92BD81BDF89A992715
:1052F00080B50895A8E1B0E042E050E00C94952913
:10530000262FF999FECF1FBA92BD81BD20BD0FB6E1
:10531000F894FA9AF99A0FBE019608950E9480298E
:10532000272F0C948129DC01CB01FC01F999FECFD8
:1053300006C0F2BDE1BDF89A319600B40D9241501D
:0A5340005040B8F70895F894FFCF2D
:10534A0005F607E708C40890085C0801B0012808B8
:10535A00140A321E404D36221C03CF0299027702EC
:10536A0003021C0235024E0200010203040506076D
:04537A00080900001E
:00000001FF
